{
  "contractName": "AMM",
  "abi": [
    {
      "inputs": [
        {
          "internalType": "address",
          "name": "kresko_",
          "type": "address"
        },
        {
          "internalType": "address",
          "name": "oracle_",
          "type": "address"
        },
        {
          "internalType": "address",
          "name": "stableTokenAddress_",
          "type": "address"
        },
        {
          "internalType": "address",
          "name": "kAssetAddress_",
          "type": "address"
        },
        {
          "internalType": "uint256",
          "name": "minTimeBetweenBucketUpdates_",
          "type": "uint256"
        }
      ],
      "stateMutability": "nonpayable",
      "type": "constructor"
    },
    {
      "anonymous": false,
      "inputs": [
        {
          "indexed": true,
          "internalType": "address",
          "name": "previousOwner",
          "type": "address"
        },
        {
          "indexed": true,
          "internalType": "address",
          "name": "newOwner",
          "type": "address"
        }
      ],
      "name": "OwnershipTransferred",
      "type": "event"
    },
    {
      "anonymous": false,
      "inputs": [
        {
          "indexed": false,
          "internalType": "uint256",
          "name": "minTimeBetweenBucketUpdates",
          "type": "uint256"
        }
      ],
      "name": "SetMinTimeBetweenBucketUpdates",
      "type": "event"
    },
    {
      "anonymous": false,
      "inputs": [
        {
          "indexed": false,
          "internalType": "address",
          "name": "oracle",
          "type": "address"
        }
      ],
      "name": "SetOracle",
      "type": "event"
    },
    {
      "anonymous": false,
      "inputs": [
        {
          "indexed": false,
          "internalType": "address",
          "name": "reserve",
          "type": "address"
        }
      ],
      "name": "SetReserve",
      "type": "event"
    },
    {
      "anonymous": false,
      "inputs": [
        {
          "indexed": false,
          "internalType": "uint256",
          "name": "kAssetBucket",
          "type": "uint256"
        },
        {
          "indexed": false,
          "internalType": "uint256",
          "name": "stableTokenBucket",
          "type": "uint256"
        }
      ],
      "name": "StableTokenBucketUpdated",
      "type": "event"
    },
    {
      "inputs": [],
      "name": "kAssetAddress",
      "outputs": [
        {
          "internalType": "address",
          "name": "",
          "type": "address"
        }
      ],
      "stateMutability": "view",
      "type": "function"
    },
    {
      "inputs": [],
      "name": "kAssetBucket",
      "outputs": [
        {
          "internalType": "uint256",
          "name": "",
          "type": "uint256"
        }
      ],
      "stateMutability": "view",
      "type": "function"
    },
    {
      "inputs": [],
      "name": "kresko",
      "outputs": [
        {
          "internalType": "address",
          "name": "",
          "type": "address"
        }
      ],
      "stateMutability": "view",
      "type": "function"
    },
    {
      "inputs": [],
      "name": "lastBucketUpdateTimestamp",
      "outputs": [
        {
          "internalType": "uint256",
          "name": "",
          "type": "uint256"
        }
      ],
      "stateMutability": "view",
      "type": "function"
    },
    {
      "inputs": [],
      "name": "minTimeBetweenBucketUpdates",
      "outputs": [
        {
          "internalType": "uint256",
          "name": "",
          "type": "uint256"
        }
      ],
      "stateMutability": "view",
      "type": "function"
    },
    {
      "inputs": [],
      "name": "oracle",
      "outputs": [
        {
          "internalType": "contract IOracle",
          "name": "",
          "type": "address"
        }
      ],
      "stateMutability": "view",
      "type": "function"
    },
    {
      "inputs": [],
      "name": "owner",
      "outputs": [
        {
          "internalType": "address",
          "name": "",
          "type": "address"
        }
      ],
      "stateMutability": "view",
      "type": "function"
    },
    {
      "inputs": [],
      "name": "renounceOwnership",
      "outputs": [],
      "stateMutability": "nonpayable",
      "type": "function"
    },
    {
      "inputs": [],
      "name": "reserve",
      "outputs": [
        {
          "internalType": "contract IReserve",
          "name": "",
          "type": "address"
        }
      ],
      "stateMutability": "view",
      "type": "function"
    },
    {
      "inputs": [],
      "name": "stableTokenAddress",
      "outputs": [
        {
          "internalType": "address",
          "name": "",
          "type": "address"
        }
      ],
      "stateMutability": "view",
      "type": "function"
    },
    {
      "inputs": [],
      "name": "stableTokenBucket",
      "outputs": [
        {
          "internalType": "uint256",
          "name": "",
          "type": "uint256"
        }
      ],
      "stateMutability": "view",
      "type": "function"
    },
    {
      "inputs": [
        {
          "internalType": "address",
          "name": "newOwner",
          "type": "address"
        }
      ],
      "name": "transferOwnership",
      "outputs": [],
      "stateMutability": "nonpayable",
      "type": "function"
    },
    {
      "inputs": [],
      "name": "addLiquidity",
      "outputs": [],
      "stateMutability": "nonpayable",
      "type": "function"
    },
    {
      "inputs": [
        {
          "internalType": "uint256",
          "name": "amount",
          "type": "uint256"
        },
        {
          "internalType": "address",
          "name": "fromToken",
          "type": "address"
        }
      ],
      "name": "swap",
      "outputs": [],
      "stateMutability": "nonpayable",
      "type": "function"
    },
    {
      "inputs": [],
      "name": "updateStableTokenBucketIfNeeded",
      "outputs": [],
      "stateMutability": "nonpayable",
      "type": "function"
    },
    {
      "inputs": [],
      "name": "getUpdatedStableTokenBucket",
      "outputs": [
        {
          "internalType": "uint256",
          "name": "",
          "type": "uint256"
        }
      ],
      "stateMutability": "view",
      "type": "function"
    },
    {
      "inputs": [
        {
          "internalType": "address",
          "name": "reserve_",
          "type": "address"
        }
      ],
      "name": "setReserve",
      "outputs": [],
      "stateMutability": "nonpayable",
      "type": "function"
    },
    {
      "inputs": [
        {
          "internalType": "address",
          "name": "newOracle",
          "type": "address"
        }
      ],
      "name": "setOracle",
      "outputs": [],
      "stateMutability": "nonpayable",
      "type": "function"
    },
    {
      "inputs": [
        {
          "internalType": "uint256",
          "name": "newMinTimeBetweenBucketUpdates",
          "type": "uint256"
        }
      ],
      "name": "setMinTimeBetweenBucketUpdates",
      "outputs": [],
      "stateMutability": "nonpayable",
      "type": "function"
    },
    {
      "inputs": [],
      "name": "extractAllTokensFromAmmAndReserve",
      "outputs": [],
      "stateMutability": "nonpayable",
      "type": "function"
    }
  ],
  "bytecode": "0x60806040523480156200001157600080fd5b5060405162001ce738038062001ce7833981016040819052620000349162000191565b600080546001600160a01b031916339081178255604051909182917f8be0079c531659141344cd1fd0a4f28419497f9722a3daafe3b4186f6b6457e0908290a350600180546001600160a01b038088166001600160a01b03199283161790925560048054868416908316811790915560058054938616938316841790556006805483169091179055600780549091169091179055620000d384620000e9565b620000de816200013e565b5050505050620001f7565b600280546001600160a01b0319166001600160a01b0383169081179091556040519081527fd3b5d1e0ffaeff528910f3663f0adace7694ab8241d58e17a91351ced2e08031906020015b60405180910390a150565b600b8190556040518181527f864fa6d16a77d959b6d10442d2105d9add73241b976434d0bd18ddf126e746d59060200162000133565b80516001600160a01b03811681146200018c57600080fd5b919050565b600080600080600060a08688031215620001a9578081fd5b620001b48662000174565b9450620001c46020870162000174565b9350620001d46040870162000174565b9250620001e46060870162000174565b9150608086015190509295509295909350565b611ae080620002076000396000f3fe608060405234801561001057600080fd5b506004361061016c5760003560e01c8063a2075bde116100cd578063d77e128c11610081578063efb1863311610066578063efb18633146102d9578063f2fde38b146102f9578063fc1faa2d1461030c57600080fd5b8063d77e128c146102b1578063e8078d94146102d157600080fd5b8063c9968d23116100b2578063c9968d231461026b578063cd3293de1461027e578063d3986f081461029e57600080fd5b8063a2075bde1461025a578063ab9de36c1461026257600080fd5b8063715018a6116101245780637dc0d1d0116101095780637dc0d1d0146102095780638da5cb5b146102295780639cecc80a1461024757600080fd5b8063715018a6146101ec5780637adbf973146101f657600080fd5b80635399602d116101555780635399602d146101d157806362d945ab146101da57806371432285146101e357600080fd5b806301972ef1146101715780630d03f9bc1461018c575b600080fd5b610179610314565b6040519081526020015b60405180910390f35b6004546101ac9073ffffffffffffffffffffffffffffffffffffffff1681565b60405173ffffffffffffffffffffffffffffffffffffffff9091168152602001610183565b61017960085481565b610179600a5481565b610179600b5481565b6101f46103c7565b005b6101f46102043660046117f5565b6104bc565b6002546101ac9073ffffffffffffffffffffffffffffffffffffffff1681565b60005473ffffffffffffffffffffffffffffffffffffffff166101ac565b6101f46102553660046117f5565b610549565b6101f46106c4565b61017960095481565b6101f4610279366004611836565b6106e9565b6003546101ac9073ffffffffffffffffffffffffffffffffffffffff1681565b6101f46102ac366004611866565b610773565b6001546101ac9073ffffffffffffffffffffffffffffffffffffffff1681565b6101f4610da0565b6005546101ac9073ffffffffffffffffffffffffffffffffffffffff1681565b6101f46103073660046117f5565b610f6b565b6101f461111c565b60006103c2600260009054906101000a900473ffffffffffffffffffffffffffffffffffffffff1673ffffffffffffffffffffffffffffffffffffffff16633fa4f2456040518163ffffffff1660e01b815260040160206040518083038186803b15801561038157600080fd5b505afa158015610395573d6000803e3d6000fd5b505050506040513d601f19601f820116820180604052508101906103b9919061184e565b60095490611415565b905090565b60005473ffffffffffffffffffffffffffffffffffffffff16331461044d576040517f08c379a000000000000000000000000000000000000000000000000000000000815260206004820181905260248201527f4f776e61626c653a2063616c6c6572206973206e6f7420746865206f776e657260448201526064015b60405180910390fd5b6000805460405173ffffffffffffffffffffffffffffffffffffffff909116907f8be0079c531659141344cd1fd0a4f28419497f9722a3daafe3b4186f6b6457e0908390a3600080547fffffffffffffffffffffffff0000000000000000000000000000000000000000169055565b60005473ffffffffffffffffffffffffffffffffffffffff16331461053d576040517f08c379a000000000000000000000000000000000000000000000000000000000815260206004820181905260248201527f4f776e61626c653a2063616c6c6572206973206e6f7420746865206f776e65726044820152606401610444565b61054681611436565b50565b60005473ffffffffffffffffffffffffffffffffffffffff1633146105ca576040517f08c379a000000000000000000000000000000000000000000000000000000000815260206004820181905260248201527f4f776e61626c653a2063616c6c6572206973206e6f7420746865206f776e65726044820152606401610444565b60035473ffffffffffffffffffffffffffffffffffffffff161561064a576040517f08c379a000000000000000000000000000000000000000000000000000000000815260206004820152601860248201527f414d4d3a205265736572766520616c72656164792073657400000000000000006044820152606401610444565b600380547fffffffffffffffffffffffff00000000000000000000000000000000000000001673ffffffffffffffffffffffffffffffffffffffff83169081179091556040519081527f70b77aa3bf7367cd8c0674c8f80aa3829d046d2171e4e151fa63ab2e0d5d8e83906020015b60405180910390a150565b600b54600a546106d49042611a21565b11156106e7576106e26114a9565b42600a555b565b60005473ffffffffffffffffffffffffffffffffffffffff16331461076a576040517f08c379a000000000000000000000000000000000000000000000000000000000815260206004820181905260248201527f4f776e61626c653a2063616c6c6572206973206e6f7420746865206f776e65726044820152606401610444565b6105468161173f565b600082116107dd576040517f08c379a000000000000000000000000000000000000000000000000000000000815260206004820152601a60248201527f4b7265736b6f3a20496e76616c696420737761702076616c75650000000000006044820152606401610444565b60045473ffffffffffffffffffffffffffffffffffffffff82811691161480610820575060055473ffffffffffffffffffffffffffffffffffffffff8281169116145b610886576040517f08c379a000000000000000000000000000000000000000000000000000000000815260206004820152601a60248201527f4b7265736b6f3a20496e76616c6964207377617020746f6b656e0000000000006044820152606401610444565b61088e6106c4565b6006546040517f70a0823100000000000000000000000000000000000000000000000000000000815230600482015260009173ffffffffffffffffffffffffffffffffffffffff16906370a082319060240160206040518083038186803b1580156108f857600080fd5b505afa15801561090c573d6000803e3d6000fd5b505050506040513d601f19601f82011682018060405250810190610930919061184e565b6007546040517f70a0823100000000000000000000000000000000000000000000000000000000815230600482015291925060009173ffffffffffffffffffffffffffffffffffffffff909116906370a082319060240160206040518083038186803b15801561099f57600080fd5b505afa1580156109b3573d6000803e3d6000fd5b505050506040513d601f19601f820116820180604052508101906109d7919061184e565b6004549091506000908190819073ffffffffffffffffffffffffffffffffffffffff87811691161415610af3576006546007546040517f054d50d4000000000000000000000000000000000000000000000000000000008152600481018a9052602481018890526044810187905273ffffffffffffffffffffffffffffffffffffffff92831695509116925073__UniswapMath___________________________9063054d50d49060640160206040518083038186803b158015610a9a57600080fd5b505af4158015610aae573d6000803e3d6000fd5b505050506040513d601f19601f82011682018060405250810190610ad2919061184e565b9050610ade8786611891565b600855610aeb8185611a21565b600955610bde565b6007546006546040517f054d50d4000000000000000000000000000000000000000000000000000000008152600481018a9052602481018790526044810188905273ffffffffffffffffffffffffffffffffffffffff92831695509116925073__UniswapMath___________________________9063054d50d49060640160206040518083038186803b158015610b8957600080fd5b505af4158015610b9d573d6000803e3d6000fd5b505050506040513d601f19601f82011682018060405250810190610bc1919061184e565b9050610bcd8785611891565b600955610bda8186611a21565b6008555b6040517f23b872dd0000000000000000000000000000000000000000000000000000000081523360048201523060248201526044810188905273ffffffffffffffffffffffffffffffffffffffff8416906323b872dd90606401602060405180830381600087803b158015610c5257600080fd5b505af1158015610c66573d6000803e3d6000fd5b505050506040513d601f19601f82011682018060405250810190610c8a919061180f565b610cf0576040517f08c379a000000000000000000000000000000000000000000000000000000000815260206004820152601a60248201527f4b7265736b6f3a2046756e6473206e6f7420617070726f7665640000000000006044820152606401610444565b6040517fa9059cbb0000000000000000000000000000000000000000000000000000000081523360048201526024810182905273ffffffffffffffffffffffffffffffffffffffff83169063a9059cbb90604401602060405180830381600087803b158015610d5e57600080fd5b505af1158015610d72573d6000803e3d6000fd5b505050506040513d601f19601f82011682018060405250810190610d96919061180f565b5050505050505050565b60015473ffffffffffffffffffffffffffffffffffffffff163314610e21576040517f08c379a000000000000000000000000000000000000000000000000000000000815260206004820152601660248201527f414d4d3a2073656e646572206e6f74204b7265736b6f000000000000000000006044820152606401610444565b6006546040517f70a0823100000000000000000000000000000000000000000000000000000000815230600482015273ffffffffffffffffffffffffffffffffffffffff909116906370a082319060240160206040518083038186803b158015610e8a57600080fd5b505afa158015610e9e573d6000803e3d6000fd5b505050506040513d601f19601f82011682018060405250810190610ec2919061184e565b6008556007546040517f70a0823100000000000000000000000000000000000000000000000000000000815230600482015273ffffffffffffffffffffffffffffffffffffffff909116906370a082319060240160206040518083038186803b158015610f2e57600080fd5b505afa158015610f42573d6000803e3d6000fd5b505050506040513d601f19601f82011682018060405250810190610f66919061184e565b600955565b60005473ffffffffffffffffffffffffffffffffffffffff163314610fec576040517f08c379a000000000000000000000000000000000000000000000000000000000815260206004820181905260248201527f4f776e61626c653a2063616c6c6572206973206e6f7420746865206f776e65726044820152606401610444565b73ffffffffffffffffffffffffffffffffffffffff811661108f576040517f08c379a000000000000000000000000000000000000000000000000000000000815260206004820152602660248201527f4f776e61626c653a206e6577206f776e657220697320746865207a65726f206160448201527f64647265737300000000000000000000000000000000000000000000000000006064820152608401610444565b6000805460405173ffffffffffffffffffffffffffffffffffffffff808516939216917f8be0079c531659141344cd1fd0a4f28419497f9722a3daafe3b4186f6b6457e091a3600080547fffffffffffffffffffffffff00000000000000000000000000000000000000001673ffffffffffffffffffffffffffffffffffffffff92909216919091179055565b60005473ffffffffffffffffffffffffffffffffffffffff16331461119d576040517f08c379a000000000000000000000000000000000000000000000000000000000815260206004820181905260248201527f4f776e61626c653a2063616c6c6572206973206e6f7420746865206f776e65726044820152606401610444565b6003546006546040517f70a0823100000000000000000000000000000000000000000000000000000000815273ffffffffffffffffffffffffffffffffffffffff92831660048201819052926383fe13e99216906370a082319060240160206040518083038186803b15801561121257600080fd5b505afa158015611226573d6000803e3d6000fd5b505050506040513d601f19601f8201168201806040525081019061124a919061184e565b6040518263ffffffff1660e01b815260040161126891815260200190565b600060405180830381600087803b15801561128257600080fd5b505af1158015611296573d6000803e3d6000fd5b50506006546040517f70a0823100000000000000000000000000000000000000000000000000000000815230600482015273ffffffffffffffffffffffffffffffffffffffff909116925063a9059cbb9150339083906370a082319060240160206040518083038186803b15801561130d57600080fd5b505afa158015611321573d6000803e3d6000fd5b505050506040513d601f19601f82011682018060405250810190611345919061184e565b6040517fffffffff0000000000000000000000000000000000000000000000000000000060e085901b16815273ffffffffffffffffffffffffffffffffffffffff90921660048301526024820152604401602060405180830381600087803b1580156113b057600080fd5b505af11580156113c4573d6000803e3d6000fd5b505050506040513d601f19601f820116820180604052508101906113e8919061180f565b5060405133904780156108fc02916000818181858888f19350505050158015610546573d6000803e3d6000fd5b600061142d83836114286012600a61191e565b611774565b90505b92915050565b600280547fffffffffffffffffffffffff00000000000000000000000000000000000000001673ffffffffffffffffffffffffffffffffffffffff83169081179091556040519081527fd3b5d1e0ffaeff528910f3663f0adace7694ab8241d58e17a91351ced2e08031906020016106b9565b60035473ffffffffffffffffffffffffffffffffffffffff16611528576040517f08c379a000000000000000000000000000000000000000000000000000000000815260206004820152601460248201527f414d4d3a2072657365727665206e6f74207365740000000000000000000000006044820152606401610444565b6008546000611535610314565b9050818111156115bc5760035473ffffffffffffffffffffffffffffffffffffffff166383fe13e96115678484611a21565b6040518263ffffffff1660e01b815260040161158591815260200190565b600060405180830381600087803b15801561159f57600080fd5b505af11580156115b3573d6000803e3d6000fd5b505050506116f5565b60065460035473ffffffffffffffffffffffffffffffffffffffff9182169163a9059cbb91166115ec8486611a21565b6040517fffffffff0000000000000000000000000000000000000000000000000000000060e085901b16815273ffffffffffffffffffffffffffffffffffffffff90921660048301526024820152604401602060405180830381600087803b15801561165757600080fd5b505af115801561166b573d6000803e3d6000fd5b505050506040513d601f19601f8201168201806040525081019061168f919061180f565b6116f5576040517f08c379a000000000000000000000000000000000000000000000000000000000815260206004820152601f60248201527f414d4d3a207472616e7366657220746f2072657365727665206661696c6564006044820152606401610444565b7f48ba3378b1c26bcff58736c14125143f7747f951fcf4ab3315d608f429c48b2a600954600854604051611733929190918252602082015260400190565b60405180910390a15050565b600b8190556040518181527f864fa6d16a77d959b6d10442d2105d9add73241b976434d0bd18ddf126e746d5906020016106b9565b600080611782600a846118a9565b61178c85876119e4565b61179691906118a9565b905060056117a5600a83611a38565b106117b8576117b5600a82611891565b90505b6117c3600a826118a9565b95945050505050565b803573ffffffffffffffffffffffffffffffffffffffff811681146117f057600080fd5b919050565b600060208284031215611806578081fd5b61142d826117cc565b600060208284031215611820578081fd5b8151801515811461182f578182fd5b9392505050565b600060208284031215611847578081fd5b5035919050565b60006020828403121561185f578081fd5b5051919050565b60008060408385031215611878578081fd5b82359150611888602084016117cc565b90509250929050565b600082198211156118a4576118a4611a4c565b500190565b6000826118b8576118b8611a7b565b500490565b600181815b8085111561191657817fffffffffffffffffffffffffffffffffffffffffffffffffffffffffffffffff048211156118fc576118fc611a4c565b8085161561190957918102915b93841c93908002906118c2565b509250929050565b600061142d838360008261193457506001611430565b8161194157506000611430565b816001811461195757600281146119615761197d565b6001915050611430565b60ff84111561197257611972611a4c565b50506001821b611430565b5060208310610133831016604e8410600b84101617156119a0575081810a611430565b6119aa83836118bd565b807fffffffffffffffffffffffffffffffffffffffffffffffffffffffffffffffff048211156119dc576119dc611a4c565b029392505050565b6000817fffffffffffffffffffffffffffffffffffffffffffffffffffffffffffffffff0483118215151615611a1c57611a1c611a4c565b500290565b600082821015611a3357611a33611a4c565b500390565b600082611a4757611a47611a7b565b500690565b7f4e487b7100000000000000000000000000000000000000000000000000000000600052601160045260246000fd5b7f4e487b7100000000000000000000000000000000000000000000000000000000600052601260045260246000fdfea2646970667358221220e23aff4bded72217250d6c3bbbd30deb0ad56052e1f320b166c8e26ee4ef1e0664736f6c63430008040033",
  "immutableReferences": {},
  "source": "//SPDX-License-Identifier: Unlicense\npragma solidity ^0.8.4;\n\nimport \"@openzeppelin/contracts/access/Ownable.sol\";\nimport \"@openzeppelin/contracts/utils/math/Math.sol\";\nimport \"@openzeppelin/contracts/utils/math/SafeMath.sol\";\n\nimport \"@openzeppelin/contracts/token/ERC20/IERC20.sol\";\n\nimport \"./libraries/DecimalMath.sol\";\nimport \"./libraries/UniswapMath.sol\";\n\nimport \"./interfaces/IOracle.sol\";\nimport \"./interfaces/IReserve.sol\";\n\ncontract AMM is Ownable {\n  using DecimalMath for uint256;\n\n  address public kresko;\n  IOracle public oracle;\n  IReserve public reserve;\n\n  address public stableTokenAddress;\n  address public kAssetAddress;\n  IERC20 private stableToken;\n  IERC20 private kAsset;\n\n  uint256 public stableTokenBucket;\n  uint256 public kAssetBucket;\n\n  // block.timestamp of the last bucket update\n  uint256 public lastBucketUpdateTimestamp;\n  // In seconds\n  uint256 public minTimeBetweenBucketUpdates;\n\n  event SetReserve(address reserve);\n  event SetOracle(address oracle);\n  event SetMinTimeBetweenBucketUpdates(uint256 minTimeBetweenBucketUpdates);\n  event StableTokenBucketUpdated(\n    uint256 kAssetBucket,\n    uint256 stableTokenBucket\n  );\n\n  modifier onlyKresko() {\n    require(msg.sender == kresko, \"AMM: sender not Kresko\");\n    _;\n  }\n\n  constructor(\n    address kresko_,\n    address oracle_,\n    address stableTokenAddress_,\n    address kAssetAddress_,\n    uint256 minTimeBetweenBucketUpdates_\n  ) {\n    kresko = kresko_;\n    stableTokenAddress = stableTokenAddress_;\n    kAssetAddress = kAssetAddress_;\n    stableToken = IERC20(stableTokenAddress);\n    kAsset = IERC20(kAssetAddress);\n\n    _setOracle(oracle_);\n    _setMinTimeBetweenBucketUpdates(minTimeBetweenBucketUpdates_);\n  }\n\n  function addLiquidity() public onlyKresko {\n    stableTokenBucket = stableToken.balanceOf(address(this));\n    kAssetBucket = kAsset.balanceOf(address(this));\n  }\n\n  function swap(uint256 amount, address fromToken) public {\n    require(amount > 0, \"Kresko: Invalid swap value\");\n    require(\n      fromToken == stableTokenAddress || fromToken == kAssetAddress,\n      \"Kresko: Invalid swap token\"\n    );\n    updateStableTokenBucketIfNeeded();\n\n    uint256 stableBalance = stableToken.balanceOf(address(this));\n    uint256 kAssetBalance = kAsset.balanceOf(address(this));\n\n    IERC20 from;\n    IERC20 to;\n    uint256 amountOut;\n    if (fromToken == stableTokenAddress) {\n      from = stableToken;\n      to = kAsset;\n      amountOut = UniswapMath.getAmountOut(\n        amount,\n        stableBalance,\n        kAssetBalance\n      );\n      stableTokenBucket = stableBalance + amount;\n      kAssetBucket = kAssetBalance - amountOut;\n    } else {\n      from = kAsset;\n      to = stableToken;\n      amountOut = UniswapMath.getAmountOut(\n        amount,\n        kAssetBalance,\n        stableBalance\n      );\n      kAssetBucket = kAssetBalance + amount;\n      stableTokenBucket = stableBalance - amountOut;\n    }\n\n    require(\n      from.transferFrom(msg.sender, address(this), amount),\n      \"Kresko: Funds not approved\"\n    );\n    to.transfer(msg.sender, amountOut);\n  }\n\n  function updateStableTokenBucketIfNeeded() public {\n    if (\n      // solhint-disable-next-line not-rely-on-time\n      block.timestamp - lastBucketUpdateTimestamp > minTimeBetweenBucketUpdates\n    ) {\n      _updateStableTokenBucket();\n      // solhint-disable-next-line not-rely-on-time\n      lastBucketUpdateTimestamp = block.timestamp;\n    }\n  }\n\n  // TODO: consider having stable token bucket as \"logical\" to avoid the gas cost\n  // of a transfer here. May be hard with relying upon balances so much though.\n  function _updateStableTokenBucket() internal {\n    require(address(reserve) != address(0), \"AMM: reserve not set\");\n    uint256 oldStableTokenBucket = stableTokenBucket;\n    uint256 newStableTokenBucket = getUpdatedStableTokenBucket();\n    if (newStableTokenBucket > oldStableTokenBucket) {\n      reserve.transferStableTokenToAMM(\n        newStableTokenBucket - oldStableTokenBucket\n      );\n    } else {\n      require(\n        stableToken.transfer(\n          address(reserve),\n          oldStableTokenBucket - newStableTokenBucket\n        ),\n        \"AMM: transfer to reserve failed\"\n      );\n    }\n    emit StableTokenBucketUpdated(kAssetBucket, stableTokenBucket);\n  }\n\n  function getUpdatedStableTokenBucket() public view returns (uint256) {\n    return kAssetBucket.multiplyDecimalRound(oracle.value());\n  }\n\n  function setReserve(address reserve_) external onlyOwner {\n    require(address(reserve) == address(0), \"AMM: Reserve already set\");\n    reserve = IReserve(reserve_);\n    emit SetReserve(reserve_);\n  }\n\n  function setOracle(address newOracle) external onlyOwner {\n    _setOracle(newOracle);\n  }\n\n  function _setOracle(address newOracle) internal {\n    oracle = IOracle(newOracle);\n    emit SetOracle(newOracle);\n  }\n\n  function setMinTimeBetweenBucketUpdates(\n    uint256 newMinTimeBetweenBucketUpdates\n  ) external onlyOwner {\n    _setMinTimeBetweenBucketUpdates(newMinTimeBetweenBucketUpdates);\n  }\n\n  function _setMinTimeBetweenBucketUpdates(\n    uint256 newMinTimeBetweenBucketUpdates\n  ) internal {\n    minTimeBetweenBucketUpdates = newMinTimeBetweenBucketUpdates;\n    emit SetMinTimeBetweenBucketUpdates(newMinTimeBetweenBucketUpdates);\n  }\n\n  // ===============\n  // NOTE - THIS IS JUST SO WE CAN EASILY REMOVE LIQUIDITY FOR NEW TESTNET DEPLOYMENTS\n  // THIS MUST MUST MUST BE REMOVED IN THE FUTURE\n  // ===============\n  function extractAllTokensFromAmmAndReserve() external onlyOwner {\n    reserve.transferStableTokenToAMM(stableToken.balanceOf(address(reserve)));\n    stableToken.transfer(msg.sender, stableToken.balanceOf(address(this)));\n    payable(msg.sender).transfer(address(this).balance);\n  }\n}\n",
  "sourcePath": "/Users/pk/Projects/kresko/kresko-protocol-old/contracts/AMM.sol",
  "compiler": {
    "name": "solc",
    "version": "0.8.4+commit.c7e474f2.Emscripten.clang"
  },
  "schemaVersion": "3.4.0",
  "updatedAt": "2022-02-02T18:24:20.518Z",
  "devdoc": {
    "kind": "dev",
    "methods": {
      "owner()": {
        "details": "Returns the address of the current owner."
      },
      "renounceOwnership()": {
        "details": "Leaves the contract without owner. It will not be possible to call `onlyOwner` functions anymore. Can only be called by the current owner. NOTE: Renouncing ownership will leave the contract without an owner, thereby removing any functionality that is only available to the owner."
      },
      "transferOwnership(address)": {
        "details": "Transfers ownership of the contract to a new account (`newOwner`). Can only be called by the current owner."
      }
    },
    "version": 1
  },
  "userdoc": {
    "kind": "user",
    "methods": {},
    "version": 1
  }
}