{
  "contractName": "BasicOracle",
  "abi": [
    {
      "inputs": [
        {
          "internalType": "address",
          "name": "reporter_",
          "type": "address"
        }
      ],
      "stateMutability": "nonpayable",
      "type": "constructor"
    },
    {
      "anonymous": false,
      "inputs": [
        {
          "indexed": false,
          "internalType": "address",
          "name": "oracle",
          "type": "address"
        }
      ],
      "name": "SetReporter",
      "type": "event"
    },
    {
      "inputs": [],
      "name": "reporter",
      "outputs": [
        {
          "internalType": "address",
          "name": "",
          "type": "address"
        }
      ],
      "stateMutability": "view",
      "type": "function"
    },
    {
      "inputs": [],
      "name": "value",
      "outputs": [
        {
          "internalType": "uint256",
          "name": "",
          "type": "uint256"
        }
      ],
      "stateMutability": "view",
      "type": "function"
    },
    {
      "inputs": [
        {
          "internalType": "uint256",
          "name": "newValue",
          "type": "uint256"
        }
      ],
      "name": "setValue",
      "outputs": [],
      "stateMutability": "nonpayable",
      "type": "function"
    },
    {
      "inputs": [
        {
          "internalType": "address",
          "name": "newReporter",
          "type": "address"
        }
      ],
      "name": "setReporter",
      "outputs": [],
      "stateMutability": "nonpayable",
      "type": "function"
    }
  ],
  "bytecode": "0x608060405234801561001057600080fd5b506040516103c33803806103c383398101604081905261002f91610092565b6100388161003e565b506100c0565b600080546001600160a01b0319166001600160a01b0383169081179091556040519081527fb4eda453b9dd76fa43a6adc49c2c2ae46d7d3dc55c5906261a33e0decfbec0579060200160405180910390a150565b6000602082840312156100a3578081fd5b81516001600160a01b03811681146100b9578182fd5b9392505050565b6102f4806100cf6000396000f3fe608060405234801561001057600080fd5b506004361061004c5760003560e01c8063010ec441146100515780633fa4f2451461009b5780634c925032146100b257806355241077146100c7575b600080fd5b6000546100719073ffffffffffffffffffffffffffffffffffffffff1681565b60405173ffffffffffffffffffffffffffffffffffffffff90911681526020015b60405180910390f35b6100a460015481565b604051908152602001610092565b6100c56100c036600461026b565b6100da565b005b6100c56100d53660046102a6565b61016c565b60005473ffffffffffffffffffffffffffffffffffffffff163314610160576040517f08c379a000000000000000000000000000000000000000000000000000000000815260206004820152601160248201527f53656e646572206e6f74206f7261636c6500000000000000000000000000000060448201526064015b60405180910390fd5b610169816101f2565b50565b60005473ffffffffffffffffffffffffffffffffffffffff1633146101ed576040517f08c379a000000000000000000000000000000000000000000000000000000000815260206004820152601160248201527f53656e646572206e6f74206f7261636c650000000000000000000000000000006044820152606401610157565b600155565b600080547fffffffffffffffffffffffff00000000000000000000000000000000000000001673ffffffffffffffffffffffffffffffffffffffff83169081179091556040519081527fb4eda453b9dd76fa43a6adc49c2c2ae46d7d3dc55c5906261a33e0decfbec0579060200160405180910390a150565b60006020828403121561027c578081fd5b813573ffffffffffffffffffffffffffffffffffffffff8116811461029f578182fd5b9392505050565b6000602082840312156102b7578081fd5b503591905056fea2646970667358221220ff8bf111b10828ea425b13641569fc9b7eefb60e23e9030ceadb373a90f9b69a64736f6c63430008040033",
  "immutableReferences": {},
  "source": "//SPDX-License-Identifier: Unlicense\npragma solidity ^0.8.4;\n\ncontract BasicOracle {\n  address public reporter;\n  uint256 public value;\n\n  event SetReporter(address oracle);\n\n  modifier onlyReporter() {\n    require(msg.sender == reporter, \"Sender not oracle\");\n    _;\n  }\n\n  constructor(address reporter_) {\n    _setReporter(reporter_);\n  }\n\n  function setValue(uint256 newValue) external onlyReporter {\n    value = newValue;\n  }\n\n  function setReporter(address newReporter) external onlyReporter {\n    _setReporter(newReporter);\n  }\n\n  function _setReporter(address newReporter) internal {\n    reporter = newReporter;\n    emit SetReporter(newReporter);\n  }\n}\n",
  "sourcePath": "/Users/pk/Projects/kresko/kresko-protocol-old/contracts/BasicOracle.sol",
  "compiler": {
    "name": "solc",
    "version": "0.8.4+commit.c7e474f2.Emscripten.clang"
  },
  "schemaVersion": "3.4.0",
  "updatedAt": "2022-02-02T18:24:20.525Z",
  "devdoc": {
    "kind": "dev",
    "methods": {},
    "version": 1
  },
  "userdoc": {
    "kind": "user",
    "methods": {},
    "version": 1
  }
}