{
  "contractName": "DecimalMath",
  "abi": [
    {
      "inputs": [],
      "name": "PRECISE_UNIT",
      "outputs": [
        {
          "internalType": "uint256",
          "name": "",
          "type": "uint256"
        }
      ],
      "stateMutability": "view",
      "type": "function"
    },
    {
      "inputs": [],
      "name": "UNIT",
      "outputs": [
        {
          "internalType": "uint256",
          "name": "",
          "type": "uint256"
        }
      ],
      "stateMutability": "view",
      "type": "function"
    },
    {
      "inputs": [],
      "name": "decimals",
      "outputs": [
        {
          "internalType": "uint8",
          "name": "",
          "type": "uint8"
        }
      ],
      "stateMutability": "view",
      "type": "function"
    },
    {
      "inputs": [],
      "name": "highPrecisionDecimals",
      "outputs": [
        {
          "internalType": "uint8",
          "name": "",
          "type": "uint8"
        }
      ],
      "stateMutability": "view",
      "type": "function"
    },
    {
      "inputs": [],
      "name": "unit",
      "outputs": [
        {
          "internalType": "uint256",
          "name": "",
          "type": "uint256"
        }
      ],
      "stateMutability": "pure",
      "type": "function"
    },
    {
      "inputs": [],
      "name": "preciseUnit",
      "outputs": [
        {
          "internalType": "uint256",
          "name": "",
          "type": "uint256"
        }
      ],
      "stateMutability": "pure",
      "type": "function"
    }
  ],
  "bytecode": "0x6102ac61003a600b82828239805160001a60731461002d57634e487b7160e01b600052600060045260246000fd5b30600052607381538281f3fe730000000000000000000000000000000000000000301460806040526004361061007c5760003560e01c80639d8e21771161005a5780639d8e2177146100be578063d5e5e6e6146100c6578063def4419d146100ce57600080fd5b8063313ce56714610081578063864029e7146100a0578063907af6c0146100b6575b600080fd5b610089601281565b60405160ff90911681526020015b60405180910390f35b6100a86100d6565b604051908152602001610097565b6100a86100e5565b6100a86100f8565b6100a8610104565b610089601b81565b6100e2601b600a610173565b81565b60006100f36012600a610173565b905090565b6100e26012600a610173565b60006100f3601b600a610173565b600181815b8085111561016b57817fffffffffffffffffffffffffffffffffffffffffffffffffffffffffffffffff0482111561015157610151610247565b8085161561015e57918102915b93841c9390800290610117565b509250929050565b600061017f8383610186565b9392505050565b60008261019557506001610241565b816101a257506000610241565b81600181146101b857600281146101c2576101de565b6001915050610241565b60ff8411156101d3576101d3610247565b50506001821b610241565b5060208310610133831016604e8410600b8410161715610201575081810a610241565b61020b8383610112565b807fffffffffffffffffffffffffffffffffffffffffffffffffffffffffffffffff0482111561023d5761023d610247565b0290505b92915050565b7f4e487b7100000000000000000000000000000000000000000000000000000000600052601160045260246000fdfea2646970667358221220e51cd59d25a700fada87c3a3a4e18c7120156a323914b0757d9629ee057fe65d64736f6c63430008040033",
  "immutableReferences": {},
  "source": "//SPDX-License-Identifier: MIT\npragma solidity ^0.8.4;\n\n/**\n * @notice a library for working with decimals and high precision decimals.\n * @dev Copy of https://github.com/Synthetixio/synthetix/blob/master/contracts/SafeDecimalMath.sol\n * and modified to not use SafeMath.\n */\nlibrary DecimalMath {\n  /* Number of decimal places in the representations. */\n  // solhint-disable-next-line const-name-snakecase\n  uint8 public constant decimals = 18;\n  // solhint-disable-next-line const-name-snakecase\n  uint8 public constant highPrecisionDecimals = 27;\n\n  /* The number representing 1.0. */\n  uint256 public constant UNIT = 10**uint256(decimals);\n\n  /* The number representing 1.0 for higher fidelity numbers. */\n  uint256 public constant PRECISE_UNIT = 10**uint256(highPrecisionDecimals);\n  uint256 private constant UNIT_TO_HIGH_PRECISION_CONVERSION_FACTOR =\n    10**uint256(highPrecisionDecimals - decimals);\n\n  /**\n   * @return Provides an interface to UNIT.\n   */\n  function unit() external pure returns (uint256) {\n    return UNIT;\n  }\n\n  /**\n   * @return Provides an interface to PRECISE_UNIT.\n   */\n  function preciseUnit() external pure returns (uint256) {\n    return PRECISE_UNIT;\n  }\n\n  /**\n   * @return The result of multiplying x and y, interpreting the operands as fixed-point\n   * decimals.\n   *\n   * @dev A unit factor is divided out after the product of x and y is evaluated,\n   * so that product must be less than 2**256. As this is an integer division,\n   * the internal division always rounds down. This helps save on gas. Rounding\n   * is more expensive on gas.\n   */\n  function multiplyDecimal(uint256 x, uint256 y)\n    internal\n    pure\n    returns (uint256)\n  {\n    /* Divide by UNIT to remove the extra factor introduced by the product. */\n    return (x * y) / UNIT;\n  }\n\n  /**\n   * @return The result of safely multiplying x and y, interpreting the operands\n   * as fixed-point decimals of the specified precision unit.\n   *\n   * @dev The operands should be in the form of a the specified unit factor which will be\n   * divided out after the product of x and y is evaluated, so that product must be\n   * less than 2**256.\n   *\n   * Unlike multiplyDecimal, this function rounds the result to the nearest increment.\n   * Rounding is useful when you need to retain fidelity for small decimal numbers\n   * (eg. small fractions or percentages).\n   */\n  function _multiplyDecimalRound(\n    uint256 x,\n    uint256 y,\n    uint256 precisionUnit\n  ) private pure returns (uint256) {\n    /* Divide by UNIT to remove the extra factor introduced by the product. */\n    uint256 quotientTimesTen = (x * y) / (precisionUnit / 10);\n\n    if (quotientTimesTen % 10 >= 5) {\n      quotientTimesTen += 10;\n    }\n\n    return quotientTimesTen / 10;\n  }\n\n  /**\n   * @return The result of safely multiplying x and y, interpreting the operands\n   * as fixed-point decimals of a precise unit.\n   *\n   * @dev The operands should be in the precise unit factor which will be\n   * divided out after the product of x and y is evaluated, so that product must be\n   * less than 2**256.\n   *\n   * Unlike multiplyDecimal, this function rounds the result to the nearest increment.\n   * Rounding is useful when you need to retain fidelity for small decimal numbers\n   * (eg. small fractions or percentages).\n   */\n  function multiplyDecimalRoundPrecise(uint256 x, uint256 y)\n    internal\n    pure\n    returns (uint256)\n  {\n    return _multiplyDecimalRound(x, y, PRECISE_UNIT);\n  }\n\n  /**\n   * @return The result of safely multiplying x and y, interpreting the operands\n   * as fixed-point decimals of a standard unit.\n   *\n   * @dev The operands should be in the standard unit factor which will be\n   * divided out after the product of x and y is evaluated, so that product must be\n   * less than 2**256.\n   *\n   * Unlike multiplyDecimal, this function rounds the result to the nearest increment.\n   * Rounding is useful when you need to retain fidelity for small decimal numbers\n   * (eg. small fractions or percentages).\n   */\n  function multiplyDecimalRound(uint256 x, uint256 y)\n    internal\n    pure\n    returns (uint256)\n  {\n    return _multiplyDecimalRound(x, y, UNIT);\n  }\n\n  /**\n   * @return The result of safely dividing x and y. The return value is a high\n   * precision decimal.\n   *\n   * @dev y is divided after the product of x and the standard precision unit\n   * is evaluated, so the product of x and UNIT must be less than 2**256. As\n   * this is an integer division, the result is always rounded down.\n   * This helps save on gas. Rounding is more expensive on gas.\n   */\n  function divideDecimal(uint256 x, uint256 y) internal pure returns (uint256) {\n    /* Reintroduce the UNIT factor that will be divided out by y. */\n    return (x * UNIT) / y;\n  }\n\n  /**\n   * @return The result of safely dividing x and y. The return value is as a rounded\n   * decimal in the precision unit specified in the parameter.\n   *\n   * @dev y is divided after the product of x and the specified precision unit\n   * is evaluated, so the product of x and the specified precision unit must\n   * be less than 2**256. The result is rounded to the nearest increment.\n   */\n  function _divideDecimalRound(\n    uint256 x,\n    uint256 y,\n    uint256 precisionUnit\n  ) private pure returns (uint256) {\n    uint256 resultTimesTen = (x * precisionUnit * 10) / y;\n\n    if (resultTimesTen % 10 >= 5) {\n      resultTimesTen += 10;\n    }\n\n    return resultTimesTen / 10;\n  }\n\n  /**\n   * @return The result of safely dividing x and y. The return value is as a rounded\n   * standard precision decimal.\n   *\n   * @dev y is divided after the product of x and the standard precision unit\n   * is evaluated, so the product of x and the standard precision unit must\n   * be less than 2**256. The result is rounded to the nearest increment.\n   */\n  function divideDecimalRound(uint256 x, uint256 y)\n    internal\n    pure\n    returns (uint256)\n  {\n    return _divideDecimalRound(x, y, UNIT);\n  }\n\n  /**\n   * @return The result of safely dividing x and y. The return value is as a rounded\n   * high precision decimal.\n   *\n   * @dev y is divided after the product of x and the high precision unit\n   * is evaluated, so the product of x and the high precision unit must\n   * be less than 2**256. The result is rounded to the nearest increment.\n   */\n  function divideDecimalRoundPrecise(uint256 x, uint256 y)\n    internal\n    pure\n    returns (uint256)\n  {\n    return _divideDecimalRound(x, y, PRECISE_UNIT);\n  }\n\n  /**\n   * @dev Convert a standard decimal representation to a high precision one.\n   */\n  function decimalToPreciseDecimal(uint256 i) internal pure returns (uint256) {\n    return i * UNIT_TO_HIGH_PRECISION_CONVERSION_FACTOR;\n  }\n\n  /**\n   * @dev Convert a high precision decimal to a standard decimal representation.\n   */\n  function preciseDecimalToDecimal(uint256 i) internal pure returns (uint256) {\n    uint256 quotientTimesTen =\n      i / (UNIT_TO_HIGH_PRECISION_CONVERSION_FACTOR / 10);\n\n    if (quotientTimesTen % 10 >= 5) {\n      quotientTimesTen += 10;\n    }\n\n    return quotientTimesTen / 10;\n  }\n}\n",
  "sourcePath": "/Users/pk/Projects/kresko/kresko-protocol-old/contracts/libraries/DecimalMath.sol",
  "compiler": {
    "name": "solc",
    "version": "0.8.4+commit.c7e474f2.Emscripten.clang"
  },
  "schemaVersion": "3.4.0",
  "updatedAt": "2022-02-02T18:24:20.560Z",
  "devdoc": {
    "details": "Copy of https://github.com/Synthetixio/synthetix/blob/master/contracts/SafeDecimalMath.sol and modified to not use SafeMath.",
    "kind": "dev",
    "methods": {
      "preciseUnit()": {
        "returns": {
          "_0": "Provides an interface to PRECISE_UNIT."
        }
      },
      "unit()": {
        "returns": {
          "_0": "Provides an interface to UNIT."
        }
      }
    },
    "version": 1
  },
  "userdoc": {
    "kind": "user",
    "methods": {},
    "notice": "a library for working with decimals and high precision decimals.",
    "version": 1
  }
}