{
  "contractName": "Kresko",
  "abi": [
    {
      "inputs": [
        {
          "internalType": "address",
          "name": "stableToken_",
          "type": "address"
        }
      ],
      "stateMutability": "nonpayable",
      "type": "constructor"
    },
    {
      "anonymous": false,
      "inputs": [
        {
          "indexed": true,
          "internalType": "address",
          "name": "previousOwner",
          "type": "address"
        },
        {
          "indexed": true,
          "internalType": "address",
          "name": "newOwner",
          "type": "address"
        }
      ],
      "name": "OwnershipTransferred",
      "type": "event"
    },
    {
      "inputs": [],
      "name": "MINIMUM_SHARE",
      "outputs": [
        {
          "internalType": "uint256",
          "name": "",
          "type": "uint256"
        }
      ],
      "stateMutability": "view",
      "type": "function"
    },
    {
      "inputs": [
        {
          "internalType": "address",
          "name": "",
          "type": "address"
        },
        {
          "internalType": "address",
          "name": "",
          "type": "address"
        }
      ],
      "name": "collateralShareBalances",
      "outputs": [
        {
          "internalType": "uint256",
          "name": "",
          "type": "uint256"
        }
      ],
      "stateMutability": "view",
      "type": "function"
    },
    {
      "inputs": [
        {
          "internalType": "address",
          "name": "",
          "type": "address"
        }
      ],
      "name": "collateralShareTotalSupply",
      "outputs": [
        {
          "internalType": "uint256",
          "name": "",
          "type": "uint256"
        }
      ],
      "stateMutability": "view",
      "type": "function"
    },
    {
      "inputs": [
        {
          "internalType": "address",
          "name": "",
          "type": "address"
        },
        {
          "internalType": "address",
          "name": "",
          "type": "address"
        }
      ],
      "name": "kAssetDebt",
      "outputs": [
        {
          "internalType": "uint256",
          "name": "",
          "type": "uint256"
        }
      ],
      "stateMutability": "view",
      "type": "function"
    },
    {
      "inputs": [
        {
          "internalType": "address",
          "name": "",
          "type": "address"
        }
      ],
      "name": "kAssetInfos",
      "outputs": [
        {
          "internalType": "contract IAMM",
          "name": "amm",
          "type": "address"
        },
        {
          "internalType": "contract IReserve",
          "name": "reserve",
          "type": "address"
        },
        {
          "internalType": "contract IOracle",
          "name": "oracle",
          "type": "address"
        },
        {
          "internalType": "uint256",
          "name": "collateralRatio",
          "type": "uint256"
        },
        {
          "internalType": "bool",
          "name": "active",
          "type": "bool"
        }
      ],
      "stateMutability": "view",
      "type": "function"
    },
    {
      "inputs": [
        {
          "internalType": "address",
          "name": "",
          "type": "address"
        },
        {
          "internalType": "address",
          "name": "",
          "type": "address"
        }
      ],
      "name": "kAssetLPShareBalances",
      "outputs": [
        {
          "internalType": "uint256",
          "name": "",
          "type": "uint256"
        }
      ],
      "stateMutability": "view",
      "type": "function"
    },
    {
      "inputs": [
        {
          "internalType": "address",
          "name": "",
          "type": "address"
        }
      ],
      "name": "kAssetLPShareTotalSupply",
      "outputs": [
        {
          "internalType": "uint256",
          "name": "",
          "type": "uint256"
        }
      ],
      "stateMutability": "view",
      "type": "function"
    },
    {
      "inputs": [],
      "name": "owner",
      "outputs": [
        {
          "internalType": "address",
          "name": "",
          "type": "address"
        }
      ],
      "stateMutability": "view",
      "type": "function"
    },
    {
      "inputs": [],
      "name": "renounceOwnership",
      "outputs": [],
      "stateMutability": "nonpayable",
      "type": "function"
    },
    {
      "inputs": [],
      "name": "stableToken",
      "outputs": [
        {
          "internalType": "contract IERC20",
          "name": "",
          "type": "address"
        }
      ],
      "stateMutability": "view",
      "type": "function"
    },
    {
      "inputs": [
        {
          "internalType": "address",
          "name": "newOwner",
          "type": "address"
        }
      ],
      "name": "transferOwnership",
      "outputs": [],
      "stateMutability": "nonpayable",
      "type": "function"
    },
    {
      "inputs": [
        {
          "internalType": "address",
          "name": "kAsset",
          "type": "address"
        },
        {
          "internalType": "address",
          "name": "amm",
          "type": "address"
        },
        {
          "internalType": "address",
          "name": "reserve",
          "type": "address"
        },
        {
          "internalType": "address",
          "name": "oracle",
          "type": "address"
        },
        {
          "internalType": "uint256",
          "name": "collateralRatio",
          "type": "uint256"
        }
      ],
      "name": "listKAsset",
      "outputs": [],
      "stateMutability": "nonpayable",
      "type": "function"
    },
    {
      "inputs": [
        {
          "internalType": "address",
          "name": "kAsset",
          "type": "address"
        },
        {
          "internalType": "uint256",
          "name": "amount",
          "type": "uint256"
        }
      ],
      "name": "mint",
      "outputs": [],
      "stateMutability": "nonpayable",
      "type": "function"
    },
    {
      "inputs": [
        {
          "internalType": "address",
          "name": "kAsset",
          "type": "address"
        },
        {
          "internalType": "uint256",
          "name": "amount",
          "type": "uint256"
        }
      ],
      "name": "mintAsAMMLiquidity",
      "outputs": [],
      "stateMutability": "nonpayable",
      "type": "function"
    },
    {
      "inputs": [
        {
          "internalType": "address",
          "name": "kAsset",
          "type": "address"
        },
        {
          "internalType": "uint256",
          "name": "amount",
          "type": "uint256"
        }
      ],
      "name": "depositCollateral",
      "outputs": [],
      "stateMutability": "nonpayable",
      "type": "function"
    },
    {
      "inputs": [
        {
          "internalType": "address",
          "name": "kAsset",
          "type": "address"
        }
      ],
      "name": "getTotalCollateralAmount",
      "outputs": [
        {
          "internalType": "uint256",
          "name": "",
          "type": "uint256"
        }
      ],
      "stateMutability": "view",
      "type": "function"
    },
    {
      "inputs": [
        {
          "internalType": "address",
          "name": "kAsset",
          "type": "address"
        },
        {
          "internalType": "address",
          "name": "account",
          "type": "address"
        }
      ],
      "name": "getKAssetAmountOwned",
      "outputs": [
        {
          "internalType": "uint256",
          "name": "",
          "type": "uint256"
        }
      ],
      "stateMutability": "view",
      "type": "function"
    },
    {
      "inputs": [
        {
          "internalType": "address",
          "name": "kAsset",
          "type": "address"
        },
        {
          "internalType": "address",
          "name": "account",
          "type": "address"
        }
      ],
      "name": "getCollateralAmountOwned",
      "outputs": [
        {
          "internalType": "uint256",
          "name": "",
          "type": "uint256"
        }
      ],
      "stateMutability": "view",
      "type": "function"
    }
  ],
  "bytecode": "0x608060405234801561001057600080fd5b50604051611c7b380380611c7b83398101604081905261002f91610095565b600080546001600160a01b031916339081178255604051909182917f8be0079c531659141344cd1fd0a4f28419497f9722a3daafe3b4186f6b6457e0908290a350600780546001600160a01b0319166001600160a01b03929092169190911790556100c3565b6000602082840312156100a6578081fd5b81516001600160a01b03811681146100bc578182fd5b9392505050565b611ba9806100d26000396000f3fe608060405234801561001057600080fd5b50600436106101365760003560e01c806391ccd8d4116100b2578063a9d75b2b11610081578063e6b5384b11610066578063e6b5384b14610383578063f2fde38b14610396578063f95e0dce146103a957600080fd5b8063a9d75b2b14610338578063cb6e044f1461035857600080fd5b806391ccd8d41461023757806394c2258514610262578063981a77c914610282578063a5d5db0c1461032557600080fd5b80633400ff6b1161010957806354821c21116100ee57806354821c21146101dd578063715018a6146101f05780638da5cb5b146101f857600080fd5b80633400ff6b146101b557806340c10f19146101c857600080fd5b80630169b2e11461013b5780631eefe1011461016157806332946a711461018c57806332990fd314610195575b600080fd5b61014e61014936600461186c565b6103bc565b6040519081526020015b60405180910390f35b61014e61016f36600461186c565b600260209081526000928352604080842090915290825290205481565b61014e6103e881565b61014e6101a3366004611852565b60066020526000908152604090205481565b61014e6101c336600461186c565b6104b2565b6101db6101d63660046118f9565b61061a565b005b61014e6101eb366004611852565b610807565b6101db610a1a565b60005473ffffffffffffffffffffffffffffffffffffffff165b60405173ffffffffffffffffffffffffffffffffffffffff9091168152602001610158565b61014e61024536600461186c565b600560209081526000928352604080842090915290825290205481565b61014e610270366004611852565b60046020526000908152604090205481565b6102df610290366004611852565b60016020819052600091825260409091208054918101546002820154600383015460049093015473ffffffffffffffffffffffffffffffffffffffff9485169492831693919092169160ff1685565b6040805173ffffffffffffffffffffffffffffffffffffffff9687168152948616602086015292909416918301919091526060820152901515608082015260a001610158565b6101db6103333660046118f9565b610b0a565b6007546102129073ffffffffffffffffffffffffffffffffffffffff1681565b61014e61036636600461186c565b600360209081526000928352604080842090915290825290205481565b6101db61039136600461189e565b610cda565b6101db6103a4366004611852565b610eb9565b6101db6103b73660046118f9565b61106a565b73ffffffffffffffffffffffffffffffffffffffff8083166000908152600160208190526040822001549091849116610456576040517f08c379a000000000000000000000000000000000000000000000000000000000815260206004820152601d60248201527f4b7265736b6f3a206b417373657420646f6573206e6f7420657869737400000060448201526064015b60405180910390fd5b73ffffffffffffffffffffffffffffffffffffffff80851660008181526005602090815260408083209488168352938152838220549282526006905291909120546104aa91906104a587610807565b611429565b949350505050565b73ffffffffffffffffffffffffffffffffffffffff8083166000908152600160208190526040822001549091849116610547576040517f08c379a000000000000000000000000000000000000000000000000000000000815260206004820152601d60248201527f4b7265736b6f3a206b417373657420646f6573206e6f74206578697374000000604482015260640161044d565b73ffffffffffffffffffffffffffffffffffffffff8085166000818152600360209081526040808320888616845282528083205493835260048083528184205460018452938290205482517fab9de36c00000000000000000000000000000000000000000000000000000000815292516104aa97919091169363ab9de36c938084019391929190829003018186803b1580156105e257600080fd5b505afa1580156105f6573d6000803e3d6000fd5b505050506040513d601f19601f820116820180604052508101906104a59190611942565b73ffffffffffffffffffffffffffffffffffffffff8216600090815260016020526040902060040154829060ff166106ae576040517f08c379a000000000000000000000000000000000000000000000000000000000815260206004820152601960248201527f4b7265736b6f3a206b4173736574206e6f742061637469766500000000000000604482015260640161044d565b73ffffffffffffffffffffffffffffffffffffffff831660009081526002602090815260408083203384529091528120546106ea90849061195a565b90506106f7843383611458565b61075d576040517f08c379a000000000000000000000000000000000000000000000000000000000815260206004820152601d60248201527f4b7265736b6f3a206e6f7420656e6f75676820636f6c6c61746572616c000000604482015260640161044d565b73ffffffffffffffffffffffffffffffffffffffff841660008181526002602090815260408083203380855292529182902084905590517f40c10f190000000000000000000000000000000000000000000000000000000081526004810191909152602481018590526340c10f1990604401600060405180830381600087803b1580156107e957600080fd5b505af11580156107fd573d6000803e3d6000fd5b5050505050505050565b73ffffffffffffffffffffffffffffffffffffffff808216600090815260016020819052604082200154909183911661089c576040517f08c379a000000000000000000000000000000000000000000000000000000000815260206004820152601d60248201527f4b7265736b6f3a206b417373657420646f6573206e6f74206578697374000000604482015260640161044d565b60075473ffffffffffffffffffffffffffffffffffffffff848116600090815260016020819052604091829020015490517f70a0823100000000000000000000000000000000000000000000000000000000815290821660048201529116906370a082319060240160206040518083038186803b15801561091c57600080fd5b505afa158015610930573d6000803e3d6000fd5b505050506040513d601f19601f820116820180604052508101906109549190611942565b60075473ffffffffffffffffffffffffffffffffffffffff858116600090815260016020526040908190205490517f70a0823100000000000000000000000000000000000000000000000000000000815290821660048201529116906370a082319060240160206040518083038186803b1580156109d157600080fd5b505afa1580156109e5573d6000803e3d6000fd5b505050506040513d601f19601f82011682018060405250810190610a099190611942565b610a13919061195a565b9392505050565b60005473ffffffffffffffffffffffffffffffffffffffff163314610a9b576040517f08c379a000000000000000000000000000000000000000000000000000000000815260206004820181905260248201527f4f776e61626c653a2063616c6c6572206973206e6f7420746865206f776e6572604482015260640161044d565b6000805460405173ffffffffffffffffffffffffffffffffffffffff909116907f8be0079c531659141344cd1fd0a4f28419497f9722a3daafe3b4186f6b6457e0908390a3600080547fffffffffffffffffffffffff0000000000000000000000000000000000000000169055565b73ffffffffffffffffffffffffffffffffffffffff80831660009081526001602081905260409091200154839116610b9e576040517f08c379a000000000000000000000000000000000000000000000000000000000815260206004820152601d60248201527f4b7265736b6f3a206b417373657420646f6573206e6f74206578697374000000604482015260640161044d565b610ba88383611540565b60075473ffffffffffffffffffffffffffffffffffffffff848116600090815260016020819052604091829020015490517f23b872dd0000000000000000000000000000000000000000000000000000000081523360048201529082166024820152604481018590529116906323b872dd90606401602060405180830381600087803b158015610c3757600080fd5b505af1158015610c4b573d6000803e3d6000fd5b505050506040513d601f19601f82011682018060405250810190610c6f9190611922565b610cd5576040517f08c379a000000000000000000000000000000000000000000000000000000000815260206004820152601f60248201527f4b7265736b6f3a2072657365727665207472616e73666572206661696c656400604482015260640161044d565b505050565b60005473ffffffffffffffffffffffffffffffffffffffff163314610d5b576040517f08c379a000000000000000000000000000000000000000000000000000000000815260206004820181905260248201527f4f776e61626c653a2063616c6c6572206973206e6f7420746865206f776e6572604482015260640161044d565b670de0b6b3a7640000811015610dcd576040517f08c379a000000000000000000000000000000000000000000000000000000000815260206004820181905260248201527f4b7265736b6f3a20636f6c6c61746572616c20726174696f20746f6f206c6f77604482015260640161044d565b6040805160a08101825273ffffffffffffffffffffffffffffffffffffffff958616815293851660208086019182529386168583019081526060860193845260016080870181815298881660009081529581905292909420945185547fffffffffffffffffffffffff00000000000000000000000000000000000000009081169188169190911786559051918501805482169287169290921790915591516002840180549093169416939093179055905160038201559051600490910180547fffffffffffffffffffffffffffffffffffffffffffffffffffffffffffffff0016911515919091179055565b60005473ffffffffffffffffffffffffffffffffffffffff163314610f3a576040517f08c379a000000000000000000000000000000000000000000000000000000000815260206004820181905260248201527f4f776e61626c653a2063616c6c6572206973206e6f7420746865206f776e6572604482015260640161044d565b73ffffffffffffffffffffffffffffffffffffffff8116610fdd576040517f08c379a000000000000000000000000000000000000000000000000000000000815260206004820152602660248201527f4f776e61626c653a206e6577206f776e657220697320746865207a65726f206160448201527f6464726573730000000000000000000000000000000000000000000000000000606482015260840161044d565b6000805460405173ffffffffffffffffffffffffffffffffffffffff808516939216917f8be0079c531659141344cd1fd0a4f28419497f9722a3daafe3b4186f6b6457e091a3600080547fffffffffffffffffffffffff00000000000000000000000000000000000000001673ffffffffffffffffffffffffffffffffffffffff92909216919091179055565b73ffffffffffffffffffffffffffffffffffffffff8216600090815260016020526040902060040154829060ff166110fe576040517f08c379a000000000000000000000000000000000000000000000000000000000815260206004820152601960248201527f4b7265736b6f3a206b4173736574206e6f742061637469766500000000000000604482015260640161044d565b73ffffffffffffffffffffffffffffffffffffffff8316600090815260026020908152604080832033845290915281205461113a90849061195a565b9050611147843383611458565b6111ad576040517f08c379a000000000000000000000000000000000000000000000000000000000815260206004820152601d60248201527f4b7265736b6f3a206e6f7420656e6f75676820636f6c6c61746572616c000000604482015260640161044d565b73ffffffffffffffffffffffffffffffffffffffff8416600090815260026020908152604080832033845290915290208190556111ea8484611605565b73ffffffffffffffffffffffffffffffffffffffff848116600081815260016020818152604092839020835160a08101855281548716808252938201548716928101929092526002810154909516818401526003850154606082015260049485015460ff161515608082015291517f40c10f190000000000000000000000000000000000000000000000000000000081529384015260248301869052916340c10f1990604401600060405180830381600087803b1580156112aa57600080fd5b505af11580156112be573d6000803e3d6000fd5b50505050806020015173ffffffffffffffffffffffffffffffffffffffff166383fe13e961136e836040015173ffffffffffffffffffffffffffffffffffffffff16633fa4f2456040518163ffffffff1660e01b815260040160206040518083038186803b15801561132f57600080fd5b505afa158015611343573d6000803e3d6000fd5b505050506040513d601f19601f820116820180604052508101906113679190611942565b8790611769565b6040518263ffffffff1660e01b815260040161138c91815260200190565b600060405180830381600087803b1580156113a657600080fd5b505af11580156113ba573d6000803e3d6000fd5b50505050806000015173ffffffffffffffffffffffffffffffffffffffff1663e8078d946040518163ffffffff1660e01b8152600401600060405180830381600087803b15801561140a57600080fd5b505af115801561141e573d6000803e3d6000fd5b505050505050505050565b6000831580611436575082155b1561144357506000610a13565b8261144e8386611aad565b6104aa9190611972565b73ffffffffffffffffffffffffffffffffffffffff8084166000908152600160208181526040808420815160a08101835281548716815293810154861684840152600281015490951683820181905260038601546060850181905260049687015460ff161515608086015282517f3fa4f245000000000000000000000000000000000000000000000000000000008152925195969495879561152495929461151e9493633fa4f24593828401939192909190829003018186803b15801561132f57600080fd5b90611769565b9050600061153287876103bc565b909111159695505050505050565b60008061157b8361155086610807565b73ffffffffffffffffffffffffffffffffffffffff871660009081526006602052604090205461178a565b73ffffffffffffffffffffffffffffffffffffffff86166000908152600660205260408120805493955091935083926115b590849061195a565b909155505073ffffffffffffffffffffffffffffffffffffffff84166000908152600560209081526040808320338452909152812080548492906115fa90849061195a565b909155505050505050565b73ffffffffffffffffffffffffffffffffffffffff80831660009081526001602090815260408083205481517fab9de36c0000000000000000000000000000000000000000000000000000000081529151939485946116ea948894939092169263ab9de36c926004808301939192829003018186803b15801561168757600080fd5b505afa15801561169b573d6000803e3d6000fd5b505050506040513d601f19601f820116820180604052508101906116bf9190611942565b73ffffffffffffffffffffffffffffffffffffffff871660009081526004602052604090205461178a565b73ffffffffffffffffffffffffffffffffffffffff861660009081526004602052604081208054939550919350839261172490849061195a565b909155505073ffffffffffffffffffffffffffffffffffffffff84166000908152600360209081526040808320338452909152812080548492906115fa90849061195a565b6000611781838361177c6012600a6119e7565b6117d1565b90505b92915050565b6000808080846117aa576117a06103e888611aea565b91508690506117c5565b856117b58689611aad565b6117bf9190611972565b90508091505b90969095509350505050565b6000806117df600a84611972565b6117e98587611aad565b6117f39190611972565b90506005611802600a83611b01565b1061181557611812600a8261195a565b90505b611820600a82611972565b95945050505050565b803573ffffffffffffffffffffffffffffffffffffffff8116811461184d57600080fd5b919050565b600060208284031215611863578081fd5b61178182611829565b6000806040838503121561187e578081fd5b61188783611829565b915061189560208401611829565b90509250929050565b600080600080600060a086880312156118b5578081fd5b6118be86611829565b94506118cc60208701611829565b93506118da60408701611829565b92506118e860608701611829565b949793965091946080013592915050565b6000806040838503121561190b578182fd5b61191483611829565b946020939093013593505050565b600060208284031215611933578081fd5b81518015158114610a13578182fd5b600060208284031215611953578081fd5b5051919050565b6000821982111561196d5761196d611b15565b500190565b60008261198157611981611b44565b500490565b600181815b808511156119df57817fffffffffffffffffffffffffffffffffffffffffffffffffffffffffffffffff048211156119c5576119c5611b15565b808516156119d257918102915b93841c939080029061198b565b509250929050565b600061178183836000826119fd57506001611784565b81611a0a57506000611784565b8160018114611a205760028114611a2a57611a46565b6001915050611784565b60ff841115611a3b57611a3b611b15565b50506001821b611784565b5060208310610133831016604e8410600b8410161715611a69575081810a611784565b611a738383611986565b807fffffffffffffffffffffffffffffffffffffffffffffffffffffffffffffffff04821115611aa557611aa5611b15565b029392505050565b6000817fffffffffffffffffffffffffffffffffffffffffffffffffffffffffffffffff0483118215151615611ae557611ae5611b15565b500290565b600082821015611afc57611afc611b15565b500390565b600082611b1057611b10611b44565b500690565b7f4e487b7100000000000000000000000000000000000000000000000000000000600052601160045260246000fd5b7f4e487b7100000000000000000000000000000000000000000000000000000000600052601260045260246000fdfea26469706673582212201777f996805b15fc5488453d127fce207f043a36b05aabd5b7be9127c7fbf98464736f6c63430008040033",
  "immutableReferences": {},
  "source": "//SPDX-License-Identifier: Unlicense\npragma solidity ^0.8.4;\n\nimport \"@openzeppelin/contracts/access/Ownable.sol\";\nimport \"@openzeppelin/contracts/token/ERC20/IERC20.sol\";\n\nimport \"./interfaces/IAMM.sol\";\nimport \"./interfaces/IOracle.sol\";\nimport \"./interfaces/IKAsset.sol\";\nimport \"./interfaces/IReserve.sol\";\n\nimport \"./libraries/CeloRegistry.sol\";\nimport \"./libraries/DecimalMath.sol\";\n\ncontract Kresko is Ownable {\n  using DecimalMath for uint256;\n\n  struct KAssetInfo {\n    IAMM amm;\n    IReserve reserve;\n    IOracle oracle;\n    // Decimal value, ie has 18 decimals\n    uint256 collateralRatio;\n    bool active;\n  }\n\n  struct PercentOwnershipInfo {\n    uint256 initialPercentageOwned;\n    uint256 ledgerIndex;\n  }\n\n  /**\n   * @notice The minimum amount of shares.\n   */\n  uint256 public constant MINIMUM_SHARE = 1000;\n\n  /**\n   * @notice A mapping of kAsset address to its corresponding info.\n   */\n  mapping(address => KAssetInfo) public kAssetInfos;\n\n  /**\n   * @notice A mapping of kAsset address to a mapping of user address to\n   * the amount of the kAsset the user owes.\n   * @dev This includes all kAssets in existence, even those that were supplied\n   * as AMM liquidity.\n   */\n  mapping(address => mapping(address => uint256)) public kAssetDebt;\n\n  /**\n   * @notice A mapping of kAsset address to a mapping of user address to\n   * the amount of kAsset LP shares the user owns in the kAsset's AMM.\n   */\n  mapping(address => mapping(address => uint256)) public kAssetLPShareBalances;\n  /**\n   * @notice A mapping of kAsset address to the total supply of kAsset LP shares\n   * in the kAsset's AMM.\n   */\n  mapping(address => uint256) public kAssetLPShareTotalSupply;\n\n  /**\n   * @notice A mapping of kAsset address to a mapping of user address to\n   * the amount of collateral shares the user owns between the kAsset's AMM\n   * and reserve.\n   */\n  mapping(address => mapping(address => uint256))\n    public collateralShareBalances;\n  /**\n   * @notice A mapping of kAsset address to the total supply of collateral\n   * shares corresponding to collateral in the kAsset's AMM and reserve.\n   */\n  mapping(address => uint256) public collateralShareTotalSupply;\n\n  /**\n   * @notice StableToken, ie cUSD.\n   */\n  IERC20 public stableToken;\n\n  /**\n   * @notice Requires the kAsset to be registered with this contract.\n   * Permits the kAsset to not be active.\n   * @param kAsset The address of the kAsset.\n   */\n  modifier kAssetExists(address kAsset) {\n    require(\n      address(kAssetInfos[kAsset].reserve) != address(0),\n      \"Kresko: kAsset does not exist\"\n    );\n    _;\n  }\n\n  /**\n   * @notice Requires the kAsset to be registered with this contract and active.\n   * @param kAsset The address of the kAsset.\n   */\n  modifier kAssetIsActive(address kAsset) {\n    require(kAssetInfos[kAsset].active, \"Kresko: kAsset not active\");\n    _;\n  }\n\n  /**\n   * @param stableToken_ The address of StableToken, ie cUSD.\n   */\n  constructor(address stableToken_) {\n    stableToken = IERC20(stableToken_);\n  }\n\n  /**\n   * @notice Registers a kAsset and its related functions with this contract. Activates\n   * the kAsset for use.\n   * @param kAsset The address of the kAsset.\n   * @param amm The address of the AMM for the kAsset.\n   * @param reserve The address of the reserve for the kAsset.\n   * @param oracle The address of the oracle for the kAsset price.\n   * @param collateralRatio A decimal value (ie 18 decimals) that is the required\n   * ratio of collateral : kAsset value minted a user must maintain. Must be > 1e18\n   * (1 with 18 decimals).\n   */\n  function listKAsset(\n    address kAsset,\n    address amm,\n    address reserve,\n    address oracle,\n    uint256 collateralRatio\n  ) external onlyOwner {\n    require(collateralRatio >= 1e18, \"Kresko: collateral ratio too low\");\n    kAssetInfos[kAsset] = KAssetInfo({\n      amm: IAMM(amm),\n      reserve: IReserve(reserve),\n      oracle: IOracle(oracle),\n      collateralRatio: collateralRatio,\n      active: true\n    });\n  }\n\n  /**\n   * @notice Mints a kAsset to the sender given they own sufficient collateral in\n   * the protocol.\n   * @dev kAsset must be active.\n   * @param kAsset The address of the kAsset.\n   * @param amount The amount of the kAsset to mint.\n   */\n  function mint(address kAsset, uint256 amount)\n    external\n    kAssetIsActive(kAsset)\n  {\n    // Ensure msg.sender has enough total collateral to cover this mint\n    // on top of any existing debt\n    uint256 newKAssetDebt = kAssetDebt[address(kAsset)][msg.sender] + amount;\n    require(\n      _isProperlyCollateralized(kAsset, msg.sender, newKAssetDebt),\n      \"Kresko: not enough collateral\"\n    );\n    // Update debt the sender owes\n    kAssetDebt[address(kAsset)][msg.sender] = newKAssetDebt;\n    // Mint the kAsset to the sender\n    IKAsset(kAsset).mint(msg.sender, amount);\n  }\n\n  /**\n   * @notice Mints a kAsset given the sender owns sufficient collateral in the protocol.\n   * Rather than sending the kAsset to the sender, the kAsset is supplied as liquidity\n   * to the kAsset's AMM, and the sender is recorded as owning the appropriate share\n   * of kAssets in the AMM.\n   * @dev kAsset must be active.\n   * @param kAsset The address of the kAsset.\n   * @param amount The amount of the kAsset to mint.\n   */\n  function mintAsAMMLiquidity(address kAsset, uint256 amount)\n    external\n    kAssetIsActive(kAsset)\n  {\n    // Ensure msg.sender has enough total collateral to cover this mint\n    // on top of any existing debt\n    uint256 newKAssetDebt = kAssetDebt[address(kAsset)][msg.sender] + amount;\n    require(\n      _isProperlyCollateralized(kAsset, msg.sender, newKAssetDebt),\n      \"Kresko: not enough collateral\"\n    );\n    // Update debt the sender owes\n    kAssetDebt[address(kAsset)][msg.sender] = newKAssetDebt;\n    // Record the sender as owning the appropriate amount of shares\n    // of kAssets in the AMM\n    _mintKAssetLPShares(kAsset, amount);\n    KAssetInfo memory kAssetInfo = kAssetInfos[kAsset];\n    // Mint the kAsset to the AMM\n    IKAsset(kAsset).mint(address(kAssetInfo.amm), amount);\n    // Move over the appropriate amount of StableToken from the reserve\n    kAssetInfo.reserve.transferStableTokenToAMM(\n      amount.multiplyDecimalRound(kAssetInfo.oracle.value())\n    );\n    // Call addLiquidity to have the AMM realize there has been liquidity deposited\n    kAssetInfo.amm.addLiquidity();\n  }\n\n  /**\n   * @notice Deposits collateral from the sender into a kAsset's reserves.\n   * @dev kAsset must exist.\n   * @param kAsset The address of the kAsset.\n   * @param amount The amount of StableToken to deposit.\n   */\n  function depositCollateral(address kAsset, uint256 amount)\n    external\n    kAssetExists(kAsset)\n  {\n    _mintCollateralShares(kAsset, amount);\n    require(\n      stableToken.transferFrom(\n        msg.sender,\n        address(kAssetInfos[kAsset].reserve),\n        amount\n      ),\n      \"Kresko: reserve transfer failed\"\n    );\n  }\n\n  /**\n   * @notice Gets the total amount of StableToken collateral for a kAsset\n   * found in the kAsset's AMM and reserve.\n   * @dev kAsset must exist.\n   * @param kAsset The address of the kAsset.\n   * @return The amount of StableToken collateral in the kAsset's AMM and reserve.\n   */\n  function getTotalCollateralAmount(address kAsset)\n    public\n    view\n    kAssetExists(kAsset)\n    returns (uint256)\n  {\n    return\n      stableToken.balanceOf(address(kAssetInfos[kAsset].amm)) +\n      stableToken.balanceOf(address(kAssetInfos[kAsset].reserve));\n  }\n\n  /**\n   * @notice Gets the amount of kAsset an account owns in the kAsset AMM.\n   * @dev kAsset must exist.\n   * @param kAsset The address of the kAsset.\n   * @param account The address of the account.\n   * @return The amount of the kAsset the account owns in the kAsset AMM.\n   */\n  function getKAssetAmountOwned(address kAsset, address account)\n    public\n    view\n    kAssetExists(kAsset)\n    returns (uint256)\n  {\n    return\n      _getAssetAmountOwnedFromShares(\n        kAssetLPShareBalances[kAsset][account],\n        kAssetLPShareTotalSupply[kAsset],\n        kAssetInfos[kAsset].amm.kAssetBucket()\n      );\n  }\n\n  /**\n   * @notice Gets the amount of StableToken collateral an account owns in\n   * the kAsset's AMM and reserve.\n   * @dev kAsset must exist.\n   * @param kAsset The address of the kAsset.\n   * @param account The address of the account.\n   * @return The amount of StableToken collateral the account owns in the kAsset's\n   * AMM and reserve.\n   */\n  function getCollateralAmountOwned(address kAsset, address account)\n    public\n    view\n    kAssetExists(kAsset)\n    returns (uint256)\n  {\n    return\n      _getAssetAmountOwnedFromShares(\n        collateralShareBalances[kAsset][account],\n        collateralShareTotalSupply[kAsset],\n        getTotalCollateralAmount(kAsset)\n      );\n  }\n\n  /**\n   * @notice Gets the amount of an asset a hypothetical account would own from\n   * totalAssetAmount given information on shares owned.\n   * @param shareBalance The amount of shares the hypothetical account owns.\n   * @param shareTotalSupply The total supply of shares.\n   * @param totalAssetAmount The total amount of the asset that the shares correspond to.\n   * @return The amount of assets from totalAssetAmount the shares would own.\n   */\n  function _getAssetAmountOwnedFromShares(\n    uint256 shareBalance,\n    uint256 shareTotalSupply,\n    uint256 totalAssetAmount\n  ) internal pure returns (uint256) {\n    if (shareBalance == 0 || shareTotalSupply == 0) {\n      return 0;\n    }\n    return (shareBalance * totalAssetAmount) / shareTotalSupply;\n  }\n\n  /**\n   * @notice Creates kAsset LP shares for the sender given the amount of kAsset\n   * they are adding to the AMM.\n   * @dev Should be called by a function ensuring kAsset exists.\n   * @param kAsset The address of the kAsset.\n   * @param kAssetAmountIn The amount of kAsset the sender is adding as liquidity to the AMM.\n   */\n  function _mintKAssetLPShares(address kAsset, uint256 kAssetAmountIn)\n    internal\n  {\n    (uint256 shareAddAmount, uint256 shareSupplyAddAmount) =\n      _getShareAddAmountAndSupplyAddAmount(\n        kAssetAmountIn,\n        // intentionally use the cached bucket to avoid any \"donations\" to the\n        // AMM messing things up\n        kAssetInfos[kAsset].amm.kAssetBucket(),\n        kAssetLPShareTotalSupply[kAsset]\n      );\n    kAssetLPShareTotalSupply[kAsset] += shareSupplyAddAmount;\n    kAssetLPShareBalances[kAsset][msg.sender] += shareAddAmount;\n  }\n\n  /**\n   * @notice Creates collateral shares for the sender given the amount of collateral\n   * they are depositing.\n   * @dev Should be called by a function ensuring kAsset exists.\n   * @param kAsset The address of the kAsset.\n   * @param collateralAmountIn The amount of StableToken collateral the sender is\n   * depositing.\n   */\n  function _mintCollateralShares(address kAsset, uint256 collateralAmountIn)\n    internal\n  {\n    (uint256 shareAddAmount, uint256 shareSupplyAddAmount) =\n      _getShareAddAmountAndSupplyAddAmount(\n        collateralAmountIn,\n        getTotalCollateralAmount(kAsset),\n        collateralShareTotalSupply[kAsset]\n      );\n    collateralShareTotalSupply[kAsset] += shareSupplyAddAmount;\n    collateralShareBalances[kAsset][msg.sender] += shareAddAmount;\n  }\n\n  /**\n   * @notice Provided the amount of an asset being added, calculates the amount of\n   * shares to grant, and the amount to increase the total supply of shares.\n   * @dev The amount to increase the total supply of shares is only different when\n   * the initial liquidity is added.\n   * @param assetAmountIn The amount of the asset being added.\n   * @param existingAssetAmount The amount of the assets that are already deposited\n   * and are owned by existing shares.\n   * @param shareTotalSupply The existing total supply of shares.\n   * @return The amount of shares to grant, and the amount to increase the total supply\n   * of shares.\n   */\n  function _getShareAddAmountAndSupplyAddAmount(\n    uint256 assetAmountIn,\n    uint256 existingAssetAmount,\n    uint256 shareTotalSupply\n  ) internal pure returns (uint256, uint256) {\n    uint256 shareAddAmount;\n    uint256 shareSupplyAddAmount;\n    if (shareTotalSupply == 0) {\n      // See UniswapV2Pair's rationale for their MINIMUM_LIQUIDITY\n      shareAddAmount = assetAmountIn - MINIMUM_SHARE;\n      shareSupplyAddAmount = assetAmountIn;\n    } else {\n      shareAddAmount = shareSupplyAddAmount =\n        (assetAmountIn * shareTotalSupply) /\n        existingAssetAmount;\n    }\n    return (shareAddAmount, shareSupplyAddAmount);\n  }\n\n  /**\n   * @notice Determines if the account would be properly collateralized with the\n   * provided kAsset debt.\n   * @param kAsset The address of the kAsset.\n   * @param account The address of the account.\n   * @param accountKAssetDebt The hypothetical amount of kAsset debt to test the\n   * account's collateral against.\n   * @return Whether the account's collateral for the kAsset is sufficient to cover\n   * the accountKAssetDebt.\n   */\n  function _isProperlyCollateralized(\n    address kAsset,\n    address account,\n    uint256 accountKAssetDebt\n  ) internal returns (bool) {\n    KAssetInfo memory kAssetInfo = kAssetInfos[kAsset];\n    uint256 requiredCollateralAmount =\n      accountKAssetDebt\n        .multiplyDecimalRound(kAssetInfo.oracle.value())\n        .multiplyDecimalRound(kAssetInfo.collateralRatio);\n    uint256 collateralAmountOwned = getCollateralAmountOwned(kAsset, account);\n    return requiredCollateralAmount <= collateralAmountOwned;\n  }\n}\n",
  "sourcePath": "/Users/pk/Projects/kresko/kresko-protocol-old/contracts/Kresko.sol",
  "compiler": {
    "name": "solc",
    "version": "0.8.4+commit.c7e474f2.Emscripten.clang"
  },
  "schemaVersion": "3.4.0",
  "updatedAt": "2022-02-02T18:24:20.537Z",
  "devdoc": {
    "kind": "dev",
    "methods": {
      "constructor": {
        "params": {
          "stableToken_": "The address of StableToken, ie cUSD."
        }
      },
      "depositCollateral(address,uint256)": {
        "details": "kAsset must exist.",
        "params": {
          "amount": "The amount of StableToken to deposit.",
          "kAsset": "The address of the kAsset."
        }
      },
      "getCollateralAmountOwned(address,address)": {
        "details": "kAsset must exist.",
        "params": {
          "account": "The address of the account.",
          "kAsset": "The address of the kAsset."
        },
        "returns": {
          "_0": "The amount of StableToken collateral the account owns in the kAsset's AMM and reserve."
        }
      },
      "getKAssetAmountOwned(address,address)": {
        "details": "kAsset must exist.",
        "params": {
          "account": "The address of the account.",
          "kAsset": "The address of the kAsset."
        },
        "returns": {
          "_0": "The amount of the kAsset the account owns in the kAsset AMM."
        }
      },
      "getTotalCollateralAmount(address)": {
        "details": "kAsset must exist.",
        "params": {
          "kAsset": "The address of the kAsset."
        },
        "returns": {
          "_0": "The amount of StableToken collateral in the kAsset's AMM and reserve."
        }
      },
      "listKAsset(address,address,address,address,uint256)": {
        "params": {
          "amm": "The address of the AMM for the kAsset.",
          "collateralRatio": "A decimal value (ie 18 decimals) that is the required ratio of collateral : kAsset value minted a user must maintain. Must be > 1e18 (1 with 18 decimals).",
          "kAsset": "The address of the kAsset.",
          "oracle": "The address of the oracle for the kAsset price.",
          "reserve": "The address of the reserve for the kAsset."
        }
      },
      "mint(address,uint256)": {
        "details": "kAsset must be active.",
        "params": {
          "amount": "The amount of the kAsset to mint.",
          "kAsset": "The address of the kAsset."
        }
      },
      "mintAsAMMLiquidity(address,uint256)": {
        "details": "kAsset must be active.",
        "params": {
          "amount": "The amount of the kAsset to mint.",
          "kAsset": "The address of the kAsset."
        }
      },
      "owner()": {
        "details": "Returns the address of the current owner."
      },
      "renounceOwnership()": {
        "details": "Leaves the contract without owner. It will not be possible to call `onlyOwner` functions anymore. Can only be called by the current owner. NOTE: Renouncing ownership will leave the contract without an owner, thereby removing any functionality that is only available to the owner."
      },
      "transferOwnership(address)": {
        "details": "Transfers ownership of the contract to a new account (`newOwner`). Can only be called by the current owner."
      }
    },
    "stateVariables": {
      "kAssetDebt": {
        "details": "This includes all kAssets in existence, even those that were supplied as AMM liquidity."
      }
    },
    "version": 1
  },
  "userdoc": {
    "kind": "user",
    "methods": {
      "MINIMUM_SHARE()": {
        "notice": "The minimum amount of shares."
      },
      "collateralShareBalances(address,address)": {
        "notice": "A mapping of kAsset address to a mapping of user address to the amount of collateral shares the user owns between the kAsset's AMM and reserve."
      },
      "collateralShareTotalSupply(address)": {
        "notice": "A mapping of kAsset address to the total supply of collateral shares corresponding to collateral in the kAsset's AMM and reserve."
      },
      "depositCollateral(address,uint256)": {
        "notice": "Deposits collateral from the sender into a kAsset's reserves."
      },
      "getCollateralAmountOwned(address,address)": {
        "notice": "Gets the amount of StableToken collateral an account owns in the kAsset's AMM and reserve."
      },
      "getKAssetAmountOwned(address,address)": {
        "notice": "Gets the amount of kAsset an account owns in the kAsset AMM."
      },
      "getTotalCollateralAmount(address)": {
        "notice": "Gets the total amount of StableToken collateral for a kAsset found in the kAsset's AMM and reserve."
      },
      "kAssetDebt(address,address)": {
        "notice": "A mapping of kAsset address to a mapping of user address to the amount of the kAsset the user owes."
      },
      "kAssetInfos(address)": {
        "notice": "A mapping of kAsset address to its corresponding info."
      },
      "kAssetLPShareBalances(address,address)": {
        "notice": "A mapping of kAsset address to a mapping of user address to the amount of kAsset LP shares the user owns in the kAsset's AMM."
      },
      "kAssetLPShareTotalSupply(address)": {
        "notice": "A mapping of kAsset address to the total supply of kAsset LP shares in the kAsset's AMM."
      },
      "listKAsset(address,address,address,address,uint256)": {
        "notice": "Registers a kAsset and its related functions with this contract. Activates the kAsset for use."
      },
      "mint(address,uint256)": {
        "notice": "Mints a kAsset to the sender given they own sufficient collateral in the protocol."
      },
      "mintAsAMMLiquidity(address,uint256)": {
        "notice": "Mints a kAsset given the sender owns sufficient collateral in the protocol. Rather than sending the kAsset to the sender, the kAsset is supplied as liquidity to the kAsset's AMM, and the sender is recorded as owning the appropriate share of kAssets in the AMM."
      },
      "stableToken()": {
        "notice": "StableToken, ie cUSD."
      }
    },
    "version": 1
  }
}