{
  "contractName": "Reserve",
  "abi": [
    {
      "inputs": [
        {
          "internalType": "address",
          "name": "stableToken_",
          "type": "address"
        },
        {
          "internalType": "address",
          "name": "kresko_",
          "type": "address"
        },
        {
          "internalType": "address",
          "name": "amm_",
          "type": "address"
        }
      ],
      "stateMutability": "nonpayable",
      "type": "constructor"
    },
    {
      "inputs": [],
      "name": "amm",
      "outputs": [
        {
          "internalType": "address",
          "name": "",
          "type": "address"
        }
      ],
      "stateMutability": "view",
      "type": "function"
    },
    {
      "inputs": [],
      "name": "kresko",
      "outputs": [
        {
          "internalType": "address",
          "name": "",
          "type": "address"
        }
      ],
      "stateMutability": "view",
      "type": "function"
    },
    {
      "inputs": [],
      "name": "stableToken",
      "outputs": [
        {
          "internalType": "contract IERC20",
          "name": "",
          "type": "address"
        }
      ],
      "stateMutability": "view",
      "type": "function"
    },
    {
      "inputs": [
        {
          "internalType": "uint256",
          "name": "amount",
          "type": "uint256"
        }
      ],
      "name": "transferStableTokenToAMM",
      "outputs": [],
      "stateMutability": "nonpayable",
      "type": "function"
    }
  ],
  "bytecode": "0x608060405234801561001057600080fd5b5060405161040138038061040183398101604081905261002f9161008d565b600080546001600160a01b039485166001600160a01b0319918216179091556001805493851693821693909317909255600280549190931691161790556100cf565b80516001600160a01b038116811461008857600080fd5b919050565b6000806000606084860312156100a1578283fd5b6100aa84610071565b92506100b860208501610071565b91506100c660408501610071565b90509250925092565b610323806100de6000396000f3fe608060405234801561001057600080fd5b506004361061004c5760003560e01c80632a9439451461005157806383fe13e91461009a578063a9d75b2b146100af578063d77e128c146100cf575b600080fd5b6002546100719073ffffffffffffffffffffffffffffffffffffffff1681565b60405173ffffffffffffffffffffffffffffffffffffffff909116815260200160405180910390f35b6100ad6100a83660046102d5565b6100ef565b005b6000546100719073ffffffffffffffffffffffffffffffffffffffff1681565b6001546100719073ffffffffffffffffffffffffffffffffffffffff1681565b60015473ffffffffffffffffffffffffffffffffffffffff1633148061012c575060025473ffffffffffffffffffffffffffffffffffffffff1633145b610197576040517f08c379a000000000000000000000000000000000000000000000000000000000815260206004820152601e60248201527f526573657276653a2053656e646572206e6f74204b7265736b6f2f414d4d000060448201526064015b60405180910390fd5b6000546002546040517fa9059cbb00000000000000000000000000000000000000000000000000000000815273ffffffffffffffffffffffffffffffffffffffff91821660048201526024810184905291169063a9059cbb90604401602060405180830381600087803b15801561020d57600080fd5b505af1158015610221573d6000803e3d6000fd5b505050506040513d601f19601f8201168201806040525081019061024591906102ae565b6102ab576040517f08c379a000000000000000000000000000000000000000000000000000000000815260206004820152601c60248201527f526573657276653a20414d4d207472616e73666572206661696c656400000000604482015260640161018e565b50565b6000602082840312156102bf578081fd5b815180151581146102ce578182fd5b9392505050565b6000602082840312156102e6578081fd5b503591905056fea26469706673582212201caeb44494371c93ad93b27f238e7c9090fb4a864875272208feccbc6009039464736f6c63430008040033",
  "immutableReferences": {},
  "source": "//SPDX-License-Identifier: Unlicense\npragma solidity ^0.8.4;\n\nimport \"@openzeppelin/contracts/token/ERC20/IERC20.sol\";\n\nimport \"./libraries/CeloRegistry.sol\";\n\ncontract Reserve {\n  IERC20 public stableToken;\n  address public kresko;\n  address public amm;\n\n  constructor(\n    address stableToken_,\n    address kresko_,\n    address amm_\n  ) {\n    stableToken = IERC20(stableToken_);\n    kresko = kresko_;\n    amm = amm_;\n  }\n\n  modifier onlyKreskoOrAMM() {\n    require(\n      msg.sender == kresko || msg.sender == amm,\n      \"Reserve: Sender not Kresko/AMM\"\n    );\n    _;\n  }\n\n  function transferStableTokenToAMM(uint256 amount) external onlyKreskoOrAMM {\n    require(stableToken.transfer(amm, amount), \"Reserve: AMM transfer failed\");\n  }\n}\n",
  "sourcePath": "/Users/pk/Projects/kresko/kresko-protocol-old/contracts/Reserve.sol",
  "compiler": {
    "name": "solc",
    "version": "0.8.4+commit.c7e474f2.Emscripten.clang"
  },
  "schemaVersion": "3.4.0",
  "updatedAt": "2022-02-02T18:24:20.553Z",
  "devdoc": {
    "kind": "dev",
    "methods": {},
    "version": 1
  },
  "userdoc": {
    "kind": "user",
    "methods": {},
    "version": 1
  }
}