{
  "contractName": "UniswapMath",
  "abi": [
    {
      "inputs": [
        {
          "internalType": "uint256",
          "name": "x",
          "type": "uint256"
        }
      ],
      "name": "sqrt",
      "outputs": [
        {
          "internalType": "uint256",
          "name": "y",
          "type": "uint256"
        }
      ],
      "stateMutability": "pure",
      "type": "function"
    },
    {
      "inputs": [
        {
          "internalType": "uint256",
          "name": "amountIn",
          "type": "uint256"
        },
        {
          "internalType": "uint256",
          "name": "reserveIn",
          "type": "uint256"
        },
        {
          "internalType": "uint256",
          "name": "reserveOut",
          "type": "uint256"
        }
      ],
      "name": "getAmountOut",
      "outputs": [
        {
          "internalType": "uint256",
          "name": "amountOut",
          "type": "uint256"
        }
      ],
      "stateMutability": "pure",
      "type": "function"
    }
  ],
  "bytecode": "0x61038c61003a600b82828239805160001a60731461002d57634e487b7160e01b600052600060045260246000fd5b30600052607381538281f3fe73000000000000000000000000000000000000000030146080604052600436106100405760003560e01c8063054d50d414610045578063677342ce1461006a575b600080fd5b61005861005336600461026e565b61007d565b60405190815260200160405180910390f35b610058610078366004610256565b6101fd565b60008084116100ed576040517f08c379a000000000000000000000000000000000000000000000000000000000815260206004820152601960248201527f494e53554646494349454e545f494e5055545f414d4f554e540000000000000060448201526064015b60405180910390fd5b6000831180156100fd5750600082115b610163576040517f08c379a000000000000000000000000000000000000000000000000000000000815260206004820152601660248201527f494e53554646494349454e545f4c49515549444954590000000000000000000060448201526064016100e4565b600061016f83866102ea565b9050600061017d8686610299565b905061018981836102b1565b92508284116101f4576040517f08c379a000000000000000000000000000000000000000000000000000000000815260206004820152601660248201527f494e53554646494349454e545f4c49515549444954590000000000000000000060448201526064016100e4565b50509392505050565b600080600261020d846001610299565b61021791906102b1565b90508291505b818110156102505790508060028161023581866102b1565b61023f9190610299565b61024991906102b1565b905061021d565b50919050565b600060208284031215610267578081fd5b5035919050565b600080600060608486031215610282578182fd5b505081359360208301359350604090920135919050565b600082198211156102ac576102ac610327565b500190565b6000826102e5577f4e487b710000000000000000000000000000000000000000000000000000000081526012600452602481fd5b500490565b6000817fffffffffffffffffffffffffffffffffffffffffffffffffffffffffffffffff048311821515161561032257610322610327565b500290565b7f4e487b7100000000000000000000000000000000000000000000000000000000600052601160045260246000fdfea26469706673582212201458a7277d649ecf38e0e5d7525f2c26e436de248bff1ac122d0a53598dd0b8564736f6c63430008040033",
  "immutableReferences": {},
  "source": "//SPDX-License-Identifier: MIT\npragma solidity ^0.8.4;\n\nlibrary UniswapMath {\n  function sqrt(uint256 x) external pure returns (uint256 y) {\n    uint256 z = (x + 1) / 2;\n    y = x;\n    while (z < y) {\n      y = z;\n      z = (x / z + z) / 2;\n    }\n  }\n\n  // given an input amount of an asset and pair reserves, returns the maximum output amount of the other asset\n  function getAmountOut(\n    uint256 amountIn,\n    uint256 reserveIn,\n    uint256 reserveOut\n  ) public pure returns (uint256 amountOut) {\n    require(amountIn > 0, \"INSUFFICIENT_INPUT_AMOUNT\");\n    require(reserveIn > 0 && reserveOut > 0, \"INSUFFICIENT_LIQUIDITY\");\n\n    uint256 numerator = amountIn * reserveOut;\n    uint256 denominator = reserveIn + amountIn;\n    amountOut = numerator / denominator;\n\n    require(reserveOut > amountOut, \"INSUFFICIENT_LIQUIDITY\");\n  }\n}\n",
  "sourcePath": "/Users/pk/Projects/kresko/kresko-protocol-old/contracts/libraries/UniswapMath.sol",
  "compiler": {
    "name": "solc",
    "version": "0.8.4+commit.c7e474f2.Emscripten.clang"
  },
  "schemaVersion": "3.4.0",
  "updatedAt": "2022-02-02T18:24:20.563Z",
  "devdoc": {
    "kind": "dev",
    "methods": {},
    "version": 1
  },
  "userdoc": {
    "kind": "user",
    "methods": {},
    "version": 1
  }
}